{
  "contractName": "AdminStorage",
  "abi": [
    {
      "constant": false,
      "inputs": [
        {
          "name": "_controllerAddr",
          "type": "address"
        }
      ],
      "name": "setControllerAddr",
      "outputs": [],
      "payable": false,
      "stateMutability": "nonpayable",
      "type": "function"
    },
    {
      "constant": true,
      "inputs": [],
      "name": "ownerAddr",
      "outputs": [
        {
          "name": "",
          "type": "address"
        }
      ],
      "payable": false,
      "stateMutability": "view",
      "type": "function"
    },
    {
      "constant": true,
      "inputs": [],
      "name": "controllerAddr",
      "outputs": [
        {
          "name": "",
          "type": "address"
        }
      ],
      "payable": false,
      "stateMutability": "view",
      "type": "function"
    },
    {
      "constant": false,
      "inputs": [
        {
          "name": "_newOwner",
          "type": "address"
        }
      ],
      "name": "transferOwnership",
      "outputs": [],
      "payable": false,
      "stateMutability": "nonpayable",
      "type": "function"
    },
    {
      "constant": false,
      "inputs": [
        {
          "name": "_name",
          "type": "bytes32"
        }
      ],
      "name": "addAdmin",
      "outputs": [
        {
          "name": "",
          "type": "uint256"
        }
      ],
      "payable": false,
      "stateMutability": "nonpayable",
      "type": "function"
    }
  ],
  "bytecode": "0x60806040526000600355336000806101000a81548173ffffffffffffffffffffffffffffffffffffffff021916908373ffffffffffffffffffffffffffffffffffffffff160217905550610468806100586000396000f3fe608060405234801561001057600080fd5b50600436106100575760003560e01c80636981fa7d1461005c57806392e22c42146100a05780639c675eaa146100e2578063ee255c571461012c578063f2fde38b14610176575b600080fd5b61009e6004803603602081101561007257600080fd5b81019080803573ffffffffffffffffffffffffffffffffffffffff1690602001909291905050506101ba565b005b6100cc600480360360208110156100b657600080fd5b8101908080359060200190929190505050610257565b6040518082815260200191505060405180910390f35b6100ea610312565b604051808273ffffffffffffffffffffffffffffffffffffffff1673ffffffffffffffffffffffffffffffffffffffff16815260200191505060405180910390f35b610134610337565b604051808273ffffffffffffffffffffffffffffffffffffffff1673ffffffffffffffffffffffffffffffffffffffff16815260200191505060405180910390f35b6101b86004803603602081101561018c57600080fd5b81019080803573ffffffffffffffffffffffffffffffffffffffff16906020019092919050505061035d565b005b6000809054906101000a900473ffffffffffffffffffffffffffffffffffffffff1673ffffffffffffffffffffffffffffffffffffffff163373ffffffffffffffffffffffffffffffffffffffff161461021357600080fd5b80600160006101000a81548173ffffffffffffffffffffffffffffffffffffffff021916908373ffffffffffffffffffffffffffffffffffffffff16021790555050565b6000600160009054906101000a900473ffffffffffffffffffffffffffffffffffffffff1673ffffffffffffffffffffffffffffffffffffffff163373ffffffffffffffffffffffffffffffffffffffff16146102b357600080fd5b600360008154809291906001019190505550604051806040016040528060035481526020018381525060026000600354815260200190815260200160002060008201518160000155602082015181600101559050506003549050919050565b6000809054906101000a900473ffffffffffffffffffffffffffffffffffffffff1681565b600160009054906101000a900473ffffffffffffffffffffffffffffffffffffffff1681565b6000809054906101000a900473ffffffffffffffffffffffffffffffffffffffff1673ffffffffffffffffffffffffffffffffffffffff163373ffffffffffffffffffffffffffffffffffffffff16146103b657600080fd5b600073ffffffffffffffffffffffffffffffffffffffff168173ffffffffffffffffffffffffffffffffffffffff1614156103f057600080fd5b806000806101000a81548173ffffffffffffffffffffffffffffffffffffffff021916908373ffffffffffffffffffffffffffffffffffffffff1602179055505056fea265627a7a7230582039e92b92b9137908805b13953cdeff0e9a038bb7679a6a64ba7e39a4bc2ed7c364736f6c634300050a0032",
  "source": "// SPDX-License-Identifier: MIT\npragma solidity >=0.4.22 <0.9.0;\n\nimport '../helpers/BaseStorage.sol';\n\ncontract AdminStorage is BaseStorage {\n\n  mapping(uint => Admin) admins;\n  struct Admin {\n    uint id;\n    bytes32 name;\n  }\n\n  uint latestAdminId = 0;\n\n\n  function addAdmin(bytes32 _name) public onlyController returns(uint) {\n    latestAdminId++;\n\n    admins[latestAdminId] = Admin(latestAdminId, _name);\n\n    return latestAdminId;\n  }\n\n}\n",
  "sourcePath": "/Users/mac/blockchain/code-test-election-app/contracts/admins/AdminStorage.sol",
  "compiler": {
    "name": "solc",
    "version": "0.5.10+commit.5a6ea5b1.Emscripten.clang"
  },
  "schemaVersion": "3.4.3",
  "updatedAt": "2021-09-25T07:14:33.761Z",
  "devdoc": {
    "methods": {}
  },
  "userdoc": {
    "methods": {}
  }
}