{
  "contractName": "CandidateStorage",
  "abi": [
    {
      "constant": true,
      "inputs": [
        {
          "name": "",
          "type": "uint256"
        }
      ],
      "name": "candidates",
      "outputs": [
        {
          "name": "id",
          "type": "uint256"
        },
        {
          "name": "name",
          "type": "bytes32"
        },
        {
          "name": "voteCount",
          "type": "uint256"
        },
        {
          "name": "party",
          "type": "bytes32"
        }
      ],
      "payable": false,
      "stateMutability": "view",
      "type": "function"
    },
    {
      "constant": true,
      "inputs": [],
      "name": "ownerAddr",
      "outputs": [
        {
          "name": "",
          "type": "address"
        }
      ],
      "payable": false,
      "stateMutability": "view",
      "type": "function"
    },
    {
      "constant": true,
      "inputs": [],
      "name": "controllerAddr",
      "outputs": [
        {
          "name": "",
          "type": "address"
        }
      ],
      "payable": false,
      "stateMutability": "view",
      "type": "function"
    },
    {
      "constant": false,
      "inputs": [
        {
          "name": "_newOwner",
          "type": "address"
        }
      ],
      "name": "transferOwnership",
      "outputs": [],
      "payable": false,
      "stateMutability": "nonpayable",
      "type": "function"
    },
    {
      "constant": false,
      "inputs": [
        {
          "name": "_name",
          "type": "bytes32"
        },
        {
          "name": "_party",
          "type": "bytes32"
        }
      ],
      "name": "registerCandidate",
      "outputs": [
        {
          "name": "",
          "type": "uint256"
        }
      ],
      "payable": false,
      "stateMutability": "nonpayable",
      "type": "function"
    },
    {
      "constant": false,
      "inputs": [
        {
          "name": "_candidateId",
          "type": "uint256"
        }
      ],
      "name": "updateCandidateVoteCount",
      "outputs": [],
      "payable": false,
      "stateMutability": "nonpayable",
      "type": "function"
    },
    {
      "constant": false,
      "inputs": [
        {
          "name": "id",
          "type": "uint256"
        }
      ],
      "name": "deleteCandidate",
      "outputs": [],
      "payable": false,
      "stateMutability": "nonpayable",
      "type": "function"
    },
    {
      "constant": false,
      "inputs": [
        {
          "name": "_controllerAddr",
          "type": "address"
        }
      ],
      "name": "setControllerAddr",
      "outputs": [],
      "payable": false,
      "stateMutability": "nonpayable",
      "type": "function"
    }
  ],
  "bytecode": "0x60806040526000600355336000806101000a81548173ffffffffffffffffffffffffffffffffffffffff021916908373ffffffffffffffffffffffffffffffffffffffff160217905550610666806100586000396000f3fe608060405234801561001057600080fd5b50600436106100885760003560e01c80639c675eaa1161005b5780639c675eaa146101a2578063b57e4486146101ec578063ee255c571461021a578063f2fde38b1461026457610088565b80631e620cd41461008d5780633477ee2e146100bb57806356c68f8b146101125780636981fa7d1461015e575b600080fd5b6100b9600480360360208110156100a357600080fd5b81019080803590602001909291905050506102a8565b005b6100e7600480360360208110156100d157600080fd5b81019080803590602001909291905050506102e3565b6040518085815260200184815260200183815260200182815260200194505050505060405180910390f35b6101486004803603604081101561012857600080fd5b810190808035906020019092919080359060200190929190505050610313565b6040518082815260200191505060405180910390f35b6101a06004803603602081101561017457600080fd5b81019080803573ffffffffffffffffffffffffffffffffffffffff1690602001909291905050506103f0565b005b6101aa61048d565b604051808273ffffffffffffffffffffffffffffffffffffffff1673ffffffffffffffffffffffffffffffffffffffff16815260200191505060405180910390f35b6102186004803603602081101561020257600080fd5b81019080803590602001909291905050506104b2565b005b610222610535565b604051808273ffffffffffffffffffffffffffffffffffffffff1673ffffffffffffffffffffffffffffffffffffffff16815260200191505060405180910390f35b6102a66004803603602081101561027a57600080fd5b81019080803573ffffffffffffffffffffffffffffffffffffffff16906020019092919050505061055b565b005b600260006003548152602001908152602001600020600080820160009055600182016000905560028201600090556003820160009055505050565b60026020528060005260406000206000915090508060000154908060010154908060020154908060030154905084565b6000600160009054906101000a900473ffffffffffffffffffffffffffffffffffffffff1673ffffffffffffffffffffffffffffffffffffffff163373ffffffffffffffffffffffffffffffffffffffff161461036f57600080fd5b60036000815480929190600101919050555060405180608001604052806003548152602001848152602001600081526020018381525060026000600354815260200190815260200160002060008201518160000155602082015181600101556040820151816002015560608201518160030155905050600354905092915050565b6000809054906101000a900473ffffffffffffffffffffffffffffffffffffffff1673ffffffffffffffffffffffffffffffffffffffff163373ffffffffffffffffffffffffffffffffffffffff161461044957600080fd5b80600160006101000a81548173ffffffffffffffffffffffffffffffffffffffff021916908373ffffffffffffffffffffffffffffffffffffffff16021790555050565b6000809054906101000a900473ffffffffffffffffffffffffffffffffffffffff1681565b600160009054906101000a900473ffffffffffffffffffffffffffffffffffffffff1673ffffffffffffffffffffffffffffffffffffffff163373ffffffffffffffffffffffffffffffffffffffff161461050c57600080fd5b600260008281526020019081526020016000206002016000815480929190600101919050555050565b600160009054906101000a900473ffffffffffffffffffffffffffffffffffffffff1681565b6000809054906101000a900473ffffffffffffffffffffffffffffffffffffffff1673ffffffffffffffffffffffffffffffffffffffff163373ffffffffffffffffffffffffffffffffffffffff16146105b457600080fd5b600073ffffffffffffffffffffffffffffffffffffffff168173ffffffffffffffffffffffffffffffffffffffff1614156105ee57600080fd5b806000806101000a81548173ffffffffffffffffffffffffffffffffffffffff021916908373ffffffffffffffffffffffffffffffffffffffff1602179055505056fea265627a7a72305820d45038a41c82f0ca2ee040991581088fdfe1743e7746d4b8354b9512f40ca89464736f6c634300050a0032",
  "source": "// SPDX-License-Identifier: MIT\npragma solidity >=0.4.22 <0.9.0;\n\nimport '../helpers/BaseStorage.sol';\n\ncontract CandidateStorage is BaseStorage {\n\n  mapping(uint => Candidate) public candidates;\n  struct Candidate {\n    uint id;\n    bytes32 name;\n    uint voteCount;\n    bytes32 party;\n  }\n\n//  uint public candidatesCount = 0;\n  uint latestCandidateId = 0;\n\n\n  function registerCandidate(bytes32 _name, bytes32 _party) public onlyController returns(uint) {\n\n    latestCandidateId++;\n\n\n    candidates[latestCandidateId] = Candidate(latestCandidateId, _name, 0, _party);\n\n//    candidatesCount++;\n\n    return latestCandidateId;\n  }\n\n  function updateCandidateVoteCount(uint _candidateId) public onlyController {\n    candidates[_candidateId].voteCount++;\n  }\n\n  function deleteCandidate(uint id) public {\n    delete candidates[latestCandidateId];\n  }\n\n  function setControllerAddr(address _controllerAddr) public {\n    require(msg.sender == ownerAddr);\n\n    controllerAddr = _controllerAddr;\n  }\n\n\n}\n",
  "sourcePath": "/Users/mac/blockchain/code-test-election-app/contracts/candidates/CandidateStorage.sol",
  "compiler": {
    "name": "solc",
    "version": "0.5.10+commit.5a6ea5b1.Emscripten.clang"
  },
  "schemaVersion": "3.4.3",
  "updatedAt": "2021-09-25T07:14:33.762Z",
  "devdoc": {
    "methods": {}
  },
  "userdoc": {
    "methods": {}
  }
}