{
  "contractName": "UserStorage",
  "abi": [
    {
      "constant": false,
      "inputs": [
        {
          "name": "_controllerAddr",
          "type": "address"
        }
      ],
      "name": "setControllerAddr",
      "outputs": [],
      "payable": false,
      "stateMutability": "nonpayable",
      "type": "function"
    },
    {
      "constant": true,
      "inputs": [],
      "name": "ownerAddr",
      "outputs": [
        {
          "name": "",
          "type": "address"
        }
      ],
      "payable": false,
      "stateMutability": "view",
      "type": "function"
    },
    {
      "constant": true,
      "inputs": [
        {
          "name": "",
          "type": "uint256"
        }
      ],
      "name": "profiles",
      "outputs": [
        {
          "name": "id",
          "type": "uint256"
        },
        {
          "name": "username",
          "type": "bytes32"
        }
      ],
      "payable": false,
      "stateMutability": "view",
      "type": "function"
    },
    {
      "constant": true,
      "inputs": [],
      "name": "controllerAddr",
      "outputs": [
        {
          "name": "",
          "type": "address"
        }
      ],
      "payable": false,
      "stateMutability": "view",
      "type": "function"
    },
    {
      "constant": false,
      "inputs": [
        {
          "name": "_newOwner",
          "type": "address"
        }
      ],
      "name": "transferOwnership",
      "outputs": [],
      "payable": false,
      "stateMutability": "nonpayable",
      "type": "function"
    },
    {
      "constant": false,
      "inputs": [
        {
          "name": "_username",
          "type": "bytes32"
        }
      ],
      "name": "createUser",
      "outputs": [
        {
          "name": "",
          "type": "uint256"
        }
      ],
      "payable": false,
      "stateMutability": "nonpayable",
      "type": "function"
    }
  ],
  "bytecode": "0x60806040526000600355336000806101000a81548173ffffffffffffffffffffffffffffffffffffffff021916908373ffffffffffffffffffffffffffffffffffffffff1602179055506104ee806100586000396000f3fe608060405234801561001057600080fd5b50600436106100625760003560e01c80636981fa7d146100675780639c675eaa146100ab578063abf7bfd8146100f5578063c36fe3d614610137578063ee255c5714610180578063f2fde38b146101ca575b600080fd5b6100a96004803603602081101561007d57600080fd5b81019080803573ffffffffffffffffffffffffffffffffffffffff16906020019092919050505061020e565b005b6100b36102ab565b604051808273ffffffffffffffffffffffffffffffffffffffff1673ffffffffffffffffffffffffffffffffffffffff16815260200191505060405180910390f35b6101216004803603602081101561010b57600080fd5b81019080803590602001909291905050506102d0565b6040518082815260200191505060405180910390f35b6101636004803603602081101561014d57600080fd5b8101908080359060200190929190505050610399565b604051808381526020018281526020019250505060405180910390f35b6101886103bd565b604051808273ffffffffffffffffffffffffffffffffffffffff1673ffffffffffffffffffffffffffffffffffffffff16815260200191505060405180910390f35b61020c600480360360208110156101e057600080fd5b81019080803573ffffffffffffffffffffffffffffffffffffffff1690602001909291905050506103e3565b005b6000809054906101000a900473ffffffffffffffffffffffffffffffffffffffff1673ffffffffffffffffffffffffffffffffffffffff163373ffffffffffffffffffffffffffffffffffffffff161461026757600080fd5b80600160006101000a81548173ffffffffffffffffffffffffffffffffffffffff021916908373ffffffffffffffffffffffffffffffffffffffff16021790555050565b6000809054906101000a900473ffffffffffffffffffffffffffffffffffffffff1681565b6000600160009054906101000a900473ffffffffffffffffffffffffffffffffffffffff1673ffffffffffffffffffffffffffffffffffffffff163373ffffffffffffffffffffffffffffffffffffffff161461032c57600080fd5b6003600081548092919060010191905055506040518060400160405280600354815260200183815250600260006003600081548092919060010191905055815260200190815260200160002060008201518160000155602082015181600101559050506003549050919050565b60026020528060005260406000206000915090508060000154908060010154905082565b600160009054906101000a900473ffffffffffffffffffffffffffffffffffffffff1681565b6000809054906101000a900473ffffffffffffffffffffffffffffffffffffffff1673ffffffffffffffffffffffffffffffffffffffff163373ffffffffffffffffffffffffffffffffffffffff161461043c57600080fd5b600073ffffffffffffffffffffffffffffffffffffffff168173ffffffffffffffffffffffffffffffffffffffff16141561047657600080fd5b806000806101000a81548173ffffffffffffffffffffffffffffffffffffffff021916908373ffffffffffffffffffffffffffffffffffffffff1602179055505056fea265627a7a723058201079ae5dfa43851ab48163d9c182391d57dbf3e7b16a3eecef8115bd5f7f728664736f6c634300050a0032",
  "source": "// SPDX-License-Identifier: MIT\npragma solidity >=0.4.22 <0.9.0;\n\nimport '../helpers/BaseStorage.sol';\n\ncontract UserStorage is BaseStorage {\n    \n   mapping(uint => Profile) public profiles;\n\n   struct Profile {\n       uint id;\n       bytes32 username;\n   }\n\n   uint latestUserId = 0;\n\n   function createUser(bytes32 _username) public onlyController returns(uint) {\n\n       latestUserId++;\n       profiles[latestUserId++] = Profile(latestUserId, _username);\n\n       return latestUserId;\n   }\n  \n}",
  "sourcePath": "/Users/mac/blockchain/code-test-election-app/contracts/users/UserStorage.sol",
  "compiler": {
    "name": "solc",
    "version": "0.5.10+commit.5a6ea5b1.Emscripten.clang"
  },
  "schemaVersion": "3.4.3",
  "updatedAt": "2021-09-25T07:14:33.770Z",
  "devdoc": {
    "methods": {}
  },
  "userdoc": {
    "methods": {}
  }
}