{
  "contractName": "VoteStorage",
  "abi": [
    {
      "constant": true,
      "inputs": [],
      "name": "voteTotal",
      "outputs": [
        {
          "name": "",
          "type": "uint256"
        }
      ],
      "payable": false,
      "stateMutability": "view",
      "type": "function"
    },
    {
      "constant": false,
      "inputs": [
        {
          "name": "_controllerAddr",
          "type": "address"
        }
      ],
      "name": "setControllerAddr",
      "outputs": [],
      "payable": false,
      "stateMutability": "nonpayable",
      "type": "function"
    },
    {
      "constant": true,
      "inputs": [],
      "name": "ownerAddr",
      "outputs": [
        {
          "name": "",
          "type": "address"
        }
      ],
      "payable": false,
      "stateMutability": "view",
      "type": "function"
    },
    {
      "constant": true,
      "inputs": [
        {
          "name": "",
          "type": "address"
        }
      ],
      "name": "voters",
      "outputs": [
        {
          "name": "",
          "type": "bool"
        }
      ],
      "payable": false,
      "stateMutability": "view",
      "type": "function"
    },
    {
      "constant": true,
      "inputs": [],
      "name": "controllerAddr",
      "outputs": [
        {
          "name": "",
          "type": "address"
        }
      ],
      "payable": false,
      "stateMutability": "view",
      "type": "function"
    },
    {
      "constant": false,
      "inputs": [
        {
          "name": "_newOwner",
          "type": "address"
        }
      ],
      "name": "transferOwnership",
      "outputs": [],
      "payable": false,
      "stateMutability": "nonpayable",
      "type": "function"
    },
    {
      "constant": false,
      "inputs": [
        {
          "name": "_candidateId",
          "type": "uint256"
        }
      ],
      "name": "castVote",
      "outputs": [],
      "payable": false,
      "stateMutability": "nonpayable",
      "type": "function"
    }
  ],
  "bytecode": "0x6080604052336000806101000a81548173ffffffffffffffffffffffffffffffffffffffff021916908373ffffffffffffffffffffffffffffffffffffffff160217905550610592806100536000396000f3fe608060405234801561001057600080fd5b506004361061007d5760003560e01c80639c675eaa1161005b5780639c675eaa14610112578063a3ec138d1461015c578063ee255c57146101b8578063f2fde38b146102025761007d565b80633e808c90146100825780633eb76b9c146100a05780636981fa7d146100ce575b600080fd5b61008a610246565b6040518082815260200191505060405180910390f35b6100cc600480360360208110156100b657600080fd5b810190808035906020019092919050505061024c565b005b610110600480360360208110156100e457600080fd5b81019080803573ffffffffffffffffffffffffffffffffffffffff16906020019092919050505061035c565b005b61011a6103f9565b604051808273ffffffffffffffffffffffffffffffffffffffff1673ffffffffffffffffffffffffffffffffffffffff16815260200191505060405180910390f35b61019e6004803603602081101561017257600080fd5b81019080803573ffffffffffffffffffffffffffffffffffffffff16906020019092919050505061041e565b604051808215151515815260200191505060405180910390f35b6101c061043e565b604051808273ffffffffffffffffffffffffffffffffffffffff1673ffffffffffffffffffffffffffffffffffffffff16815260200191505060405180910390f35b6102446004803603602081101561021857600080fd5b81019080803573ffffffffffffffffffffffffffffffffffffffff169060200190929190505050610464565b005b60035481565b600260003373ffffffffffffffffffffffffffffffffffffffff1673ffffffffffffffffffffffffffffffffffffffff16815260200190815260200160002060009054906101000a900460ff16156102ef576040517f08c379a000000000000000000000000000000000000000000000000000000000815260040180806020018281038252602381526020018061053b6023913960400191505060405180910390fd5b6001600260003373ffffffffffffffffffffffffffffffffffffffff1673ffffffffffffffffffffffffffffffffffffffff16815260200190815260200160002060006101000a81548160ff02191690831515021790555060036000815480929190600101919050555050565b6000809054906101000a900473ffffffffffffffffffffffffffffffffffffffff1673ffffffffffffffffffffffffffffffffffffffff163373ffffffffffffffffffffffffffffffffffffffff16146103b557600080fd5b80600160006101000a81548173ffffffffffffffffffffffffffffffffffffffff021916908373ffffffffffffffffffffffffffffffffffffffff16021790555050565b6000809054906101000a900473ffffffffffffffffffffffffffffffffffffffff1681565b60026020528060005260406000206000915054906101000a900460ff1681565b600160009054906101000a900473ffffffffffffffffffffffffffffffffffffffff1681565b6000809054906101000a900473ffffffffffffffffffffffffffffffffffffffff1673ffffffffffffffffffffffffffffffffffffffff163373ffffffffffffffffffffffffffffffffffffffff16146104bd57600080fd5b600073ffffffffffffffffffffffffffffffffffffffff168173ffffffffffffffffffffffffffffffffffffffff1614156104f757600080fd5b806000806101000a81548173ffffffffffffffffffffffffffffffffffffffff021916908373ffffffffffffffffffffffffffffffffffffffff1602179055505056fe566f746520616c726561647920636173742066726f6d20746869732061646472657373a265627a7a7230582062b32982431f9eefb30273e33ef0fd2af261a4d19a53fc8148445c64a10ec58e64736f6c634300050a0032",
  "source": "// SPDX-License-Identifier: MIT\npragma solidity >=0.4.22 <0.9.0;\nimport '../helpers/BaseStorage.sol';\n\ncontract VoteStorage is BaseStorage {\n\n    mapping(address => bool) public voters;\n    uint public voteTotal;\n\n    function castVote(uint _candidateId) public {\n        // require that they haven't voted before\n        require(!voters[msg.sender], \"Vote already cast from this address\");\n\n        // require a valid candidate, making sure their index is in mapping\n//        require(_candidateId > 0 && _candidateId <= candidatesCount, \"Candidate ID is not in range of candidates\");\n\n//        require(candidatesCount >= 2, \"Must be at least 2 candidates before votes can be cast\");\n\n        // record that voter has voted, making their address key true\n        voters[msg.sender] = true;\n\n        // update candidate vote Count, for matched id, based on key\n//        candidates[_candidateId].voteCount++;\n        voteTotal++;\n\n        // trigger voted event\n//        emit votedEvent(_candidateId);\n    }\n}",
  "sourcePath": "/Users/mac/blockchain/code-test-election-app/contracts/vote/VoteStorage.sol",
  "compiler": {
    "name": "solc",
    "version": "0.5.10+commit.5a6ea5b1.Emscripten.clang"
  },
  "schemaVersion": "3.4.3",
  "updatedAt": "2021-09-25T07:14:33.773Z",
  "devdoc": {
    "methods": {}
  },
  "userdoc": {
    "methods": {}
  }
}